{
  "contractName": "Bank",
  "abi": [
    {
      "inputs": [],
      "stateMutability": "nonpayable",
      "type": "constructor"
    },
    {
      "inputs": [],
      "name": "deposit",
      "outputs": [],
      "stateMutability": "payable",
      "type": "function"
    },
    {
      "inputs": [
        {
          "internalType": "uint256",
          "name": "amount",
          "type": "uint256"
        }
      ],
      "name": "withdraw",
      "outputs": [],
      "stateMutability": "payable",
      "type": "function"
    },
    {
      "inputs": [],
      "name": "getBankBalance",
      "outputs": [
        {
          "internalType": "uint256",
          "name": "",
          "type": "uint256"
        }
      ],
      "stateMutability": "view",
      "type": "function"
    }
  ],
  "bytecode": "0x608060405234801561001057600080fd5b5060405180602001604052803373ffffffffffffffffffffffffffffffffffffffff1673ffffffffffffffffffffffffffffffffffffffff16815250600090600161005c929190610116565b5033600160006101000a81548173ffffffffffffffffffffffffffffffffffffffff021916908373ffffffffffffffffffffffffffffffffffffffff1602179055506001600260003373ffffffffffffffffffffffffffffffffffffffff1673ffffffffffffffffffffffffffffffffffffffff16815260200190815260200160002060006101000a81548160ff0219169083151502179055506000600460006101000a81548160ff0219169083151502179055506101db565b82805482825590600052602060002090810192821561018f579160200282015b8281111561018e5782518260006101000a81548173ffffffffffffffffffffffffffffffffffffffff021916908373ffffffffffffffffffffffffffffffffffffffff16021790555091602001919060010190610136565b5b50905061019c91906101a0565b5090565b5b808211156101d757600081816101000a81549073ffffffffffffffffffffffffffffffffffffffff0219169055506001016101a1565b5090565b610358806101ea6000396000f3fe6080604052600436106100345760003560e01c80632e1a7d4d146100395780637b83b50b14610067578063d0e30db014610092575b600080fd5b6100656004803603602081101561004f57600080fd5b810190808035906020019092919050505061009c565b005b34801561007357600080fd5b5061007c6102cb565b6040518082815260200191505060405180910390f35b61009a6102d3565b005b338073ffffffffffffffffffffffffffffffffffffffff16600160009054906101000a900473ffffffffffffffffffffffffffffffffffffffff1673ffffffffffffffffffffffffffffffffffffffff1614610160576040517f08c379a00000000000000000000000000000000000000000000000000000000081526004018080602001828103825260128152602001807f6e6f7420636f6e7472616374206f776e6572000000000000000000000000000081525060200191505060405180910390fd5b47670de0b6b3a7640000830211156101e0576040517f08c379a00000000000000000000000000000000000000000000000000000000081526004018080602001828103825260108152602001807f6e6f7420656e6f7567682066756e64730000000000000000000000000000000081525060200191505060405180910390fd5b60003373ffffffffffffffffffffffffffffffffffffffff16670de0b6b3a7640000840260405180600001905060006040518083038185875af1925050503d806000811461024a576040519150601f19603f3d011682016040523d82523d6000602084013e61024f565b606091505b50509050806102c6576040517f08c379a00000000000000000000000000000000000000000000000000000000081526004018080602001828103825260148152602001807f4661696c656420746f2073656e6420457468657200000000000000000000000081525060200191505060405180910390fd5b505050565b600047905090565b34600360003373ffffffffffffffffffffffffffffffffffffffff1673ffffffffffffffffffffffffffffffffffffffff1681526020019081526020016000206000828254019250508190555056fea2646970667358221220e12bffed2b2dab97571e560c19d51ed1fbdad91a61f78bb8d20ce7a0502e6cab64736f6c634300060c0033",
  "immutableReferences": {},
  "source": "// SPDX-License-Identifier: MIT\npragma solidity >=0.4.21 <0.7.0;\n\ncontract Bank{\n    address[] owners;\n    address mainowner;\n    mapping(address => bool) isOwner;\n    mapping(address => uint) balances;\n    bool activated;\n\n    modifier checkSameOwner (address addr){\n        require(mainowner == addr, \"not contract owner\");\n        _;\n    }\n\n    //存錢進合約\n    function deposit() public payable{\n        balances[msg.sender]+=msg.value;\n    }\n\n    constructor () public{\n        owners = [msg.sender];\n        mainowner = msg.sender;\n        isOwner[msg.sender] = true;\n        activated = false;\n    }\n    \n    //領錢出來\n    function withdraw(uint amount) public payable checkSameOwner(msg.sender){\n        require((amount*1000000000000000000) <= address(this).balance, \"not enough funds\");\n        (bool sent, ) = msg.sender.call.value(amount*1000000000000000000)(\"\");\n        require(sent, \"Failed to send Ether\");\n    }\n\n    //查看合約的錢\n    function getBankBalance() public view returns(uint){\n        return address(this).balance;\n    }\n}",
  "sourcePath": "/Users/chanchu-ting/will/contracts/Bank.sol",
  "compiler": {
    "name": "solc",
    "version": "0.6.12+commit.27d51765.Emscripten.clang"
  },
  "schemaVersion": "3.3.3",
  "updatedAt": "2021-06-14T06:05:52.514Z",
  "devdoc": {
    "kind": "dev",
    "methods": {},
    "version": 1
  },
  "userdoc": {
    "kind": "user",
    "methods": {},
    "version": 1
  }
}