{
  "contractName": "setpassword",
  "abi": [
    {
      "constant": false,
      "inputs": [
        {
          "internalType": "address",
          "name": "_contractadd",
          "type": "address"
        }
      ],
      "name": "_setpassword",
      "outputs": [],
      "payable": false,
      "stateMutability": "nonpayable",
      "type": "function"
    },
    {
      "constant": false,
      "inputs": [
        {
          "internalType": "string",
          "name": "_password",
          "type": "string"
        }
      ],
      "name": "passwordset",
      "outputs": [],
      "payable": false,
      "stateMutability": "nonpayable",
      "type": "function"
    },
    {
      "constant": true,
      "inputs": [],
      "name": "getpassword",
      "outputs": [
        {
          "internalType": "uint256",
          "name": "",
          "type": "uint256"
        }
      ],
      "payable": false,
      "stateMutability": "view",
      "type": "function"
    }
  ],
  "bytecode": "0x60806040526008600255600254600a0a60035534801561001e57600080fd5b5061026b8061002e6000396000f3fe608060405234801561001057600080fd5b50600436106100415760003560e01c80632b6abb1414610046578063ad42a0b514610101578063e39026991461011f575b600080fd5b6100ff6004803603602081101561005c57600080fd5b810190808035906020019064010000000081111561007957600080fd5b82018360208201111561008b57600080fd5b803590602001918460018302840111640100000000831117156100ad57600080fd5b91908080601f016020809104026020016040519081016040528093929190818152602001838380828437600081840152601f19601f820116905080830192505050505050509192919290505050610163565b005b6101096101ac565b6040518082815260200191505060405180910390f35b6101616004803603602081101561013557600080fd5b81019080803573ffffffffffffffffffffffffffffffffffffffff1690602001909291905050506101f3565b005b600154600460003373ffffffffffffffffffffffffffffffffffffffff1673ffffffffffffffffffffffffffffffffffffffff1681526020019081526020016000208190555050565b6000600460003373ffffffffffffffffffffffffffffffffffffffff1673ffffffffffffffffffffffffffffffffffffffff16815260200190815260200160002054905090565b806000806101000a81548173ffffffffffffffffffffffffffffffffffffffff021916908373ffffffffffffffffffffffffffffffffffffffff1602179055505056fea265627a7a72315820a8dd46709322fc3c2eafce453a7a209b4bcce3c9cf80deb35e3992c77321efc664736f6c63430005100032",
  "source": "import './settestamentary.sol';\n\ncontract setpassword{\n     settestamentary testamentary;\n     uint password;\n     uint hashdigits=8;\n     uint hashmoduls=10**hashdigits;\n     mapping(address=>uint) beneficiarypass;\n     function _setpassword(address _contractadd) public{\n        testamentary=settestamentary(_contractadd);\n    }\n     function passwordset(string memory _password) public{\n         //password=uint((keccak256(abi.encodePacked(_password)))%hashmoduls);\n         //password=uint((keccak256(_password)));\n         //password=_password;\n         beneficiarypass[msg.sender]=password;\n     }\n     function getpassword() public view returns(uint){\n         return beneficiarypass[msg.sender];\n     }\n}   ",
  "sourcePath": "/Users/chanchu-ting/will/contracts/setpassword.sol",
  "compiler": {
    "name": "solc",
    "version": "0.5.16+commit.9c3226ce.Emscripten.clang"
  },
  "schemaVersion": "3.3.3",
  "updatedAt": "2021-06-06T09:41:51.296Z",
  "networkType": "ethereum",
  "devdoc": {
    "methods": {}
  },
  "userdoc": {
    "methods": {}
  }
}