{
  "contractName": "settestamentary",
  "abi": [
    {
      "constant": true,
      "inputs": [
        {
          "internalType": "uint256",
          "name": "",
          "type": "uint256"
        }
      ],
      "name": "beneficiaryids",
      "outputs": [
        {
          "internalType": "uint256",
          "name": "",
          "type": "uint256"
        }
      ],
      "payable": false,
      "stateMutability": "view",
      "type": "function"
    },
    {
      "constant": false,
      "inputs": [
        {
          "internalType": "string",
          "name": "_email",
          "type": "string"
        }
      ],
      "name": "submitEmail",
      "outputs": [],
      "payable": false,
      "stateMutability": "nonpayable",
      "type": "function"
    },
    {
      "constant": true,
      "inputs": [],
      "name": "getEmail",
      "outputs": [
        {
          "internalType": "string",
          "name": "",
          "type": "string"
        }
      ],
      "payable": false,
      "stateMutability": "view",
      "type": "function"
    },
    {
      "constant": false,
      "inputs": [
        {
          "internalType": "uint256",
          "name": "id",
          "type": "uint256"
        },
        {
          "internalType": "string",
          "name": "_benemail",
          "type": "string"
        },
        {
          "internalType": "uint256",
          "name": "_distriburate",
          "type": "uint256"
        }
      ],
      "name": "addbene",
      "outputs": [],
      "payable": false,
      "stateMutability": "nonpayable",
      "type": "function"
    },
    {
      "constant": true,
      "inputs": [
        {
          "internalType": "uint256",
          "name": "id",
          "type": "uint256"
        }
      ],
      "name": "getBeneficiary",
      "outputs": [
        {
          "internalType": "string",
          "name": "",
          "type": "string"
        },
        {
          "internalType": "uint256",
          "name": "",
          "type": "uint256"
        },
        {
          "internalType": "bool",
          "name": "",
          "type": "bool"
        }
      ],
      "payable": false,
      "stateMutability": "view",
      "type": "function"
    }
  ],
  "bytecode": "0x608060405234801561001057600080fd5b50610684806100206000396000f3fe608060405234801561001057600080fd5b50600436106100575760003560e01c8063302df0831461005c5780633b30476d146101155780634cd31704146101575780637e79e8ba14610226578063dbfc560a146102a9575b600080fd5b6100886004803603602081101561007257600080fd5b8101908080359060200190929190505050610364565b604051808060200184815260200183151515158152602001828103825285818151815260200191508051906020019080838360005b838110156100d85780820151818401526020810190506100bd565b50505050905090810190601f1680156101055780820380516001836020036101000a031916815260200191505b5094505050505060405180910390f35b6101416004803603602081101561012b57600080fd5b8101908080359060200190929190505050610445565b6040518082815260200191505060405180910390f35b6102246004803603606081101561016d57600080fd5b81019080803590602001909291908035906020019064010000000081111561019457600080fd5b8201836020820111156101a657600080fd5b803590602001918460018302840111640100000000831117156101c857600080fd5b91908080601f016020809104026020016040519081016040528093929190818152602001838380828437600081840152601f19601f82011690508083019250505050505050919291929080359060200190929190505050610466565b005b61022e6104ee565b6040518080602001828103825283818151815260200191508051906020019080838360005b8381101561026e578082015181840152602081019050610253565b50505050905090810190601f16801561029b5780820380516001836020036101000a031916815260200191505b509250505060405180910390f35b610362600480360360208110156102bf57600080fd5b81019080803590602001906401000000008111156102dc57600080fd5b8201836020820111156102ee57600080fd5b8035906020019184600183028401116401000000008311171561031057600080fd5b91908080601f016020809104026020016040519081016040528093929190818152602001838380828437600081840152601f19601f820116905080830192505050505050509192919290505050610590565b005b606060008060006001600086815260200190815260200160002090508060000181600101548260020160009054906101000a900460ff16828054600181600116156101000203166002900480601f0160208091040260200160405190810160405280929190818152602001828054600181600116156101000203166002900480156104305780601f1061040557610100808354040283529160200191610430565b820191906000526020600020905b81548152906001019060200180831161041357829003601f168201915b50505050509250935093509350509193909250565b6002818154811061045257fe5b906000526020600020016000915090505481565b6000600160008581526020019081526020016000209050828160000190805190602001906104959291906105aa565b5081816001018190555060008160020160006101000a81548160ff021916908315150217905550600284908060018154018082558091505090600182039060005260206000200160009091929091909150555050505050565b606060008054600181600116156101000203166002900480601f0160208091040260200160405190810160405280929190818152602001828054600181600116156101000203166002900480156105865780601f1061055b57610100808354040283529160200191610586565b820191906000526020600020905b81548152906001019060200180831161056957829003601f168201915b5050505050905090565b80600090805190602001906105a69291906105aa565b5050565b828054600181600116156101000203166002900490600052602060002090601f016020900481019282601f106105eb57805160ff1916838001178555610619565b82800160010185558215610619579182015b828111156106185782518255916020019190600101906105fd565b5b509050610626919061062a565b5090565b61064c91905b80821115610648576000816000905550600101610630565b5090565b9056fea265627a7a72315820bf61a6060f9096e02ac26299587b9e794dd43ba669d301fa7aaa3c541e2b007f64736f6c63430005100032",
  "source": "contract settestamentary{\n    //mapping(address=>uint) balances;\n    string owneremail; \n    \n    struct Beneficiary{\n        string beneficiaryemail;\n        uint portion;\n        bool execute;\n    }\n    mapping(uint=>Beneficiary) beneficiaryinfo;\n    uint[] public beneficiaryids;\n    \n    //簽立遺囑人信箱\n    function submitEmail(string memory _email) public {\n       owneremail = _email;\n    }\n    function getEmail() public view returns (string memory) {\n        return owneremail;\n    }\n    //添加入受益人\n    function addbene(uint id,string memory _benemail,uint _distriburate) public{\n       Beneficiary storage newbene= beneficiaryinfo[id];\n       newbene.beneficiaryemail = _benemail;\n       newbene.portion=_distriburate;\n       newbene.execute=false;\n       beneficiaryids.push(id);\n    }\n    //查看受益人資訊\n    function getBeneficiary(uint id) public view returns (string memory,uint,bool){\n        Beneficiary storage s = beneficiaryinfo[id];\n        return (s.beneficiaryemail,s.portion,s.execute);\n    }\n    \n}",
  "sourcePath": "/Users/chanchu-ting/will/contracts/settestamentary.sol",
  "compiler": {
    "name": "solc",
    "version": "0.5.16+commit.9c3226ce.Emscripten.clang"
  },
  "schemaVersion": "3.3.3",
  "updatedAt": "2021-06-06T09:41:51.299Z",
  "networkType": "ethereum",
  "devdoc": {
    "methods": {}
  },
  "userdoc": {
    "methods": {}
  }
}